{
  "address": "0x0FE5c4ae204c9134dd6146271d64d22A331da7c2",
  "abi": [
    {
      "inputs": [
        {
          "internalType": "address",
          "name": "PriceFeedAddress",
          "type": "address"
        },
        {
          "internalType": "uint256",
          "name": "interval",
          "type": "uint256"
        }
      ],
      "stateMutability": "nonpayable",
      "type": "constructor"
    },
    {
      "inputs": [],
      "name": "Blocked",
      "type": "error"
    },
    {
      "inputs": [],
      "name": "NoBalance",
      "type": "error"
    },
    {
      "inputs": [],
      "name": "NotProvdingLoan",
      "type": "error"
    },
    {
      "inputs": [],
      "name": "YouHavePayedLoan",
      "type": "error"
    },
    {
      "inputs": [
        {
          "internalType": "address",
          "name": "",
          "type": "address"
        }
      ],
      "name": "Balance",
      "outputs": [
        {
          "internalType": "uint256",
          "name": "",
          "type": "uint256"
        }
      ],
      "stateMutability": "view",
      "type": "function"
    },
    {
      "inputs": [],
      "name": "BankTotalAmount",
      "outputs": [
        {
          "internalType": "uint256",
          "name": "",
          "type": "uint256"
        }
      ],
      "stateMutability": "view",
      "type": "function"
    },
    {
      "inputs": [],
      "name": "BankTotalMoney",
      "outputs": [
        {
          "internalType": "uint256",
          "name": "",
          "type": "uint256"
        }
      ],
      "stateMutability": "view",
      "type": "function"
    },
    {
      "inputs": [
        {
          "internalType": "uint256",
          "name": "RequestedLoanValue",
          "type": "uint256"
        }
      ],
      "name": "LOAN",
      "outputs": [],
      "stateMutability": "nonpayable",
      "type": "function"
    },
    {
      "inputs": [],
      "name": "PayLoan",
      "outputs": [],
      "stateMutability": "payable",
      "type": "function"
    },
    {
      "inputs": [],
      "name": "PriceFeed",
      "outputs": [
        {
          "internalType": "contract AggregatorV3Interface",
          "name": "",
          "type": "address"
        }
      ],
      "stateMutability": "view",
      "type": "function"
    },
    {
      "inputs": [],
      "name": "ViewAmount",
      "outputs": [
        {
          "internalType": "uint256",
          "name": "",
          "type": "uint256"
        }
      ],
      "stateMutability": "view",
      "type": "function"
    },
    {
      "inputs": [
        {
          "internalType": "address",
          "name": "",
          "type": "address"
        }
      ],
      "name": "blockedPeople",
      "outputs": [
        {
          "internalType": "uint256",
          "name": "",
          "type": "uint256"
        }
      ],
      "stateMutability": "view",
      "type": "function"
    },
    {
      "inputs": [
        {
          "internalType": "uint256",
          "name": "",
          "type": "uint256"
        }
      ],
      "name": "blockedpeople",
      "outputs": [
        {
          "internalType": "address",
          "name": "blockedAddress",
          "type": "address"
        },
        {
          "internalType": "uint256",
          "name": "remainingAmount",
          "type": "uint256"
        }
      ],
      "stateMutability": "view",
      "type": "function"
    },
    {
      "inputs": [
        {
          "internalType": "bytes",
          "name": "",
          "type": "bytes"
        }
      ],
      "name": "checkUpkeep",
      "outputs": [
        {
          "internalType": "bool",
          "name": "upkeepNeeded",
          "type": "bool"
        },
        {
          "internalType": "bytes",
          "name": "",
          "type": "bytes"
        }
      ],
      "stateMutability": "nonpayable",
      "type": "function"
    },
    {
      "inputs": [],
      "name": "contractOwner",
      "outputs": [
        {
          "internalType": "address",
          "name": "",
          "type": "address"
        }
      ],
      "stateMutability": "view",
      "type": "function"
    },
    {
      "inputs": [],
      "name": "currentTime",
      "outputs": [
        {
          "internalType": "uint256",
          "name": "",
          "type": "uint256"
        }
      ],
      "stateMutability": "view",
      "type": "function"
    },
    {
      "inputs": [],
      "name": "i",
      "outputs": [
        {
          "internalType": "uint256",
          "name": "",
          "type": "uint256"
        }
      ],
      "stateMutability": "view",
      "type": "function"
    },
    {
      "inputs": [],
      "name": "i_interval",
      "outputs": [
        {
          "internalType": "uint256",
          "name": "",
          "type": "uint256"
        }
      ],
      "stateMutability": "view",
      "type": "function"
    },
    {
      "inputs": [],
      "name": "lastTimeStamp",
      "outputs": [
        {
          "internalType": "uint256",
          "name": "",
          "type": "uint256"
        }
      ],
      "stateMutability": "view",
      "type": "function"
    },
    {
      "inputs": [
        {
          "internalType": "address",
          "name": "",
          "type": "address"
        }
      ],
      "name": "loanAmountMapping",
      "outputs": [
        {
          "internalType": "uint256",
          "name": "",
          "type": "uint256"
        }
      ],
      "stateMutability": "view",
      "type": "function"
    },
    {
      "inputs": [],
      "name": "loanCount",
      "outputs": [
        {
          "internalType": "uint256",
          "name": "",
          "type": "uint256"
        }
      ],
      "stateMutability": "view",
      "type": "function"
    },
    {
      "inputs": [],
      "name": "loanIndex",
      "outputs": [
        {
          "internalType": "uint256",
          "name": "",
          "type": "uint256"
        }
      ],
      "stateMutability": "view",
      "type": "function"
    },
    {
      "inputs": [
        {
          "internalType": "address",
          "name": "",
          "type": "address"
        }
      ],
      "name": "loanMapping",
      "outputs": [
        {
          "internalType": "bool",
          "name": "",
          "type": "bool"
        }
      ],
      "stateMutability": "view",
      "type": "function"
    },
    {
      "inputs": [],
      "name": "payment",
      "outputs": [],
      "stateMutability": "payable",
      "type": "function"
    },
    {
      "inputs": [
        {
          "internalType": "uint256",
          "name": "",
          "type": "uint256"
        }
      ],
      "name": "people",
      "outputs": [
        {
          "internalType": "address",
          "name": "CustmerAddress",
          "type": "address"
        },
        {
          "internalType": "uint256",
          "name": "amount",
          "type": "uint256"
        }
      ],
      "stateMutability": "view",
      "type": "function"
    },
    {
      "inputs": [
        {
          "internalType": "uint256",
          "name": "",
          "type": "uint256"
        }
      ],
      "name": "peopleLoan",
      "outputs": [
        {
          "internalType": "address",
          "name": "CustmerAddress",
          "type": "address"
        },
        {
          "internalType": "uint256",
          "name": "loanAmount",
          "type": "uint256"
        },
        {
          "internalType": "uint256",
          "name": "timestampLoan",
          "type": "uint256"
        },
        {
          "internalType": "bool",
          "name": "loanStatus",
          "type": "bool"
        },
        {
          "internalType": "bool",
          "name": "blockStatus",
          "type": "bool"
        }
      ],
      "stateMutability": "view",
      "type": "function"
    },
    {
      "inputs": [
        {
          "internalType": "bytes",
          "name": "performData",
          "type": "bytes"
        }
      ],
      "name": "performUpkeep",
      "outputs": [],
      "stateMutability": "nonpayable",
      "type": "function"
    },
    {
      "inputs": [
        {
          "internalType": "address payable",
          "name": "to_receiever",
          "type": "address"
        },
        {
          "internalType": "uint256",
          "name": "value",
          "type": "uint256"
        }
      ],
      "name": "send_from_BankAccount",
      "outputs": [],
      "stateMutability": "nonpayable",
      "type": "function"
    },
    {
      "inputs": [],
      "name": "status",
      "outputs": [
        {
          "internalType": "enum BankingAmount.loan",
          "name": "",
          "type": "uint8"
        }
      ],
      "stateMutability": "view",
      "type": "function"
    },
    {
      "inputs": [],
      "name": "up",
      "outputs": [
        {
          "internalType": "bool",
          "name": "",
          "type": "bool"
        }
      ],
      "stateMutability": "view",
      "type": "function"
    },
    {
      "inputs": [
        {
          "internalType": "uint256",
          "name": "value",
          "type": "uint256"
        }
      ],
      "name": "withDraw",
      "outputs": [],
      "stateMutability": "nonpayable",
      "type": "function"
    }
  ],
  "transactionHash": "0x01fc0919ce39461e3075c2b9d4243d9bfc68c2fc1af77fb8647bec9346308e39",
  "args": [
    "0x694AA1769357215DE4FAC081bf1f309aDC325306",
    600
  ],
  "numDeployments": 2,
  "solcInputHash": "950dc7c6db80f1be453480e9458748aa",
  "bytecode": "0x60c06040526000600455600060055560006006553480156200002057600080fd5b5060405162002501380380620025018339818101604052810190620000469190620001e2565b33600160006101000a81548173ffffffffffffffffffffffffffffffffffffffff021916908373ffffffffffffffffffffffffffffffffffffffff16021790555081600760026101000a81548173ffffffffffffffffffffffffffffffffffffffff021916908373ffffffffffffffffffffffffffffffffffffffff1602179055508060a081815250506001600760016101000a81548160ff02191690836001811115620000f957620000f862000229565b5b02179055503373ffffffffffffffffffffffffffffffffffffffff1660808173ffffffffffffffffffffffffffffffffffffffff1660601b81525050505062000258565b600080fd5b600073ffffffffffffffffffffffffffffffffffffffff82169050919050565b60006200016f8262000142565b9050919050565b620001818162000162565b81146200018d57600080fd5b50565b600081519050620001a18162000176565b92915050565b6000819050919050565b620001bc81620001a7565b8114620001c857600080fd5b50565b600081519050620001dc81620001b1565b92915050565b60008060408385031215620001fc57620001fb6200013d565b5b60006200020c8582860162000190565b92505060206200021f85828601620001cb565b9150509250929050565b7f4e487b7100000000000000000000000000000000000000000000000000000000600052602160045260246000fd5b60805160601c60a051612279620002886000396000818161105f01526111c101526000610f0a01526122796000f3fe60806040526004361061019c5760003560e01c8063686b38d5116100ec578063ce606ee01161008a578063d1e659af11610064578063d1e659af146105cd578063d478dfdb146105f8578063d5a49e0114610621578063e5aa3d581461064c5761019c565b8063ce606ee01461054c578063ce63094d14610577578063d18e81b3146105a25761019c565b80636e04ff0d116100c65780636e04ff0d146104685780637a8cfcb4146104a65780639e7a13ad146104d1578063b8a84c521461050f5761019c565b8063686b38d5146103e75780636919207d146104125780636be987631461043d5761019c565b8063239fcf0f116101595780634585e33b116101335780634585e33b1461033a5780634be19f9f146103635780634d535a80146103a05780635a815fc3146103dd5761019c565b8063239fcf0f146102c85780633f3b3b271461030557806342f6487a146103305761019c565b806301388b66146101a157806308a4c1fa146101df57806308b7fa311461022057806314174f331461024b57806315b3090614610274578063200d2ed21461029d575b600080fd5b3480156101ad57600080fd5b506101c860048036038101906101c391906117fd565b610677565b6040516101d692919061187a565b60405180910390f35b3480156101eb57600080fd5b50610206600480360381019061020191906117fd565b6106cb565b6040516102179594939291906118be565b60405180910390f35b34801561022c57600080fd5b5061023561074b565b6040516102429190611970565b60405180910390f35b34801561025757600080fd5b50610272600480360381019061026d91906117fd565b610771565b005b34801561028057600080fd5b5061029b600480360381019061029691906119c9565b610942565b005b3480156102a957600080fd5b506102b2610a21565b6040516102bf9190611a80565b60405180910390f35b3480156102d457600080fd5b506102ef60048036038101906102ea9190611ac7565b610a34565b6040516102fc9190611af4565b60405180910390f35b34801561031157600080fd5b5061031a610a4c565b6040516103279190611af4565b60405180910390f35b610338610a52565b005b34801561034657600080fd5b50610361600480360381019061035c9190611b74565b610c39565b005b34801561036f57600080fd5b5061038a60048036038101906103859190611ac7565b610e46565b6040516103979190611af4565b60405180910390f35b3480156103ac57600080fd5b506103c760048036038101906103c29190611ac7565b610e5e565b6040516103d49190611bc1565b60405180910390f35b6103e5610e7e565b005b3480156103f357600080fd5b506103fc611057565b6040516104099190611af4565b60405180910390f35b34801561041e57600080fd5b5061042761105d565b6040516104349190611af4565b60405180910390f35b34801561044957600080fd5b50610452611081565b60405161045f9190611af4565b60405180910390f35b34801561047457600080fd5b5061048f600480360381019061048a9190611d1d565b611089565b60405161049d929190611dee565b60405180910390f35b3480156104b257600080fd5b506104bb6112ec565b6040516104c89190611af4565b60405180910390f35b3480156104dd57600080fd5b506104f860048036038101906104f391906117fd565b6112f2565b60405161050692919061187a565b60405180910390f35b34801561051b57600080fd5b5061053660048036038101906105319190611ac7565b611346565b6040516105439190611af4565b60405180910390f35b34801561055857600080fd5b5061056161135e565b60405161056e9190611e1e565b60405180910390f35b34801561058357600080fd5b5061058c611384565b6040516105999190611af4565b60405180910390f35b3480156105ae57600080fd5b506105b761138a565b6040516105c49190611af4565b60405180910390f35b3480156105d957600080fd5b506105e2611390565b6040516105ef9190611af4565b60405180910390f35b34801561060457600080fd5b5061061f600480360381019061061a91906117fd565b6113d7565b005b34801561062d57600080fd5b506106366116be565b6040516106439190611bc1565b60405180910390f35b34801561065857600080fd5b506106616116d1565b60405161066e9190611af4565b60405180910390f35b600a818154811061068757600080fd5b90600052602060002090600202016000915090508060000160009054906101000a900473ffffffffffffffffffffffffffffffffffffffff16908060010154905082565b600981815481106106db57600080fd5b90600052602060002090600402016000915090508060000160009054906101000a900473ffffffffffffffffffffffffffffffffffffffff16908060010154908060020154908060030160009054906101000a900460ff16908060030160019054906101000a900460ff16905085565b600760029054906101000a900473ffffffffffffffffffffffffffffffffffffffff1681565b60003390506000600b60008373ffffffffffffffffffffffffffffffffffffffff1673ffffffffffffffffffffffffffffffffffffffff1681526020019081526020016000205414156107f0576040517fc2caa2a600000000000000000000000000000000000000000000000000000000815260040160405180910390fd5b6000600e60003373ffffffffffffffffffffffffffffffffffffffff1673ffffffffffffffffffffffffffffffffffffffff1681526020019081526020016000205414610869576040517fa5baf15100000000000000000000000000000000000000000000000000000000815260040160405180910390fd5b8073ffffffffffffffffffffffffffffffffffffffff166108fc839081150290604051600060405180830381858888f193505050501580156108af573d6000803e3d6000fd5b5081600b60008373ffffffffffffffffffffffffffffffffffffffff1673ffffffffffffffffffffffffffffffffffffffff168152602001908152602001600020546108fb9190611e68565b600b60008373ffffffffffffffffffffffffffffffffffffffff1673ffffffffffffffffffffffffffffffffffffffff168152602001908152602001600020819055505050565b60003390508273ffffffffffffffffffffffffffffffffffffffff166108fc839081150290604051600060405180830381858888f1935050505015801561098d573d6000803e3d6000fd5b5081600b60008373ffffffffffffffffffffffffffffffffffffffff1673ffffffffffffffffffffffffffffffffffffffff168152602001908152602001600020546109d99190611e68565b600b60008373ffffffffffffffffffffffffffffffffffffffff1673ffffffffffffffffffffffffffffffffffffffff16815260200190815260200160002081905550505050565b600760019054906101000a900460ff1681565b600b6020528060005260406000206000915090505481565b60025481565b600860405180604001604052803373ffffffffffffffffffffffffffffffffffffffff168152602001610ab0600760029054906101000a900473ffffffffffffffffffffffffffffffffffffffff16346116d790919063ffffffff16565b815250908060018154018082558091505060019003906000526020600020906002020160009091909190915060008201518160000160006101000a81548173ffffffffffffffffffffffffffffffffffffffff021916908373ffffffffffffffffffffffffffffffffffffffff160217905550602082015181600101555050610b64600760029054906101000a900473ffffffffffffffffffffffffffffffffffffffff16346116d790919063ffffffff16565b600b60003373ffffffffffffffffffffffffffffffffffffffff1673ffffffffffffffffffffffffffffffffffffffff16815260200190815260200160002054610bae9190611e9c565b600b60003373ffffffffffffffffffffffffffffffffffffffff1673ffffffffffffffffffffffffffffffffffffffff16815260200190815260200160002081905550600b60003373ffffffffffffffffffffffffffffffffffffffff1673ffffffffffffffffffffffffffffffffffffffff16815260200190815260200160002054600081905550565b600a6040518060400160405280600960035481548110610c5c57610c5b611ef2565b5b906000526020600020906004020160000160009054906101000a900473ffffffffffffffffffffffffffffffffffffffff1673ffffffffffffffffffffffffffffffffffffffff168152602001600960035481548110610cbf57610cbe611ef2565b5b906000526020600020906004020160010154815250908060018154018082558091505060019003906000526020600020906002020160009091909190915060008201518160000160006101000a81548173ffffffffffffffffffffffffffffffffffffffff021916908373ffffffffffffffffffffffffffffffffffffffff1602179055506020820151816001015550506001600960035481548110610d6857610d67611ef2565b5b906000526020600020906004020160030160016101000a81548160ff021916908315150217905550600960035481548110610da657610da5611ef2565b5b906000526020600020906004020160010154600e6000600960035481548110610dd257610dd1611ef2565b5b906000526020600020906004020160000160009054906101000a900473ffffffffffffffffffffffffffffffffffffffff1673ffffffffffffffffffffffffffffffffffffffff1673ffffffffffffffffffffffffffffffffffffffff168152602001908152602001600020819055505050565b600e6020528060005260406000206000915090505481565b600c6020528060005260406000206000915054906101000a900460ff1681565b60001515600c60003373ffffffffffffffffffffffffffffffffffffffff1673ffffffffffffffffffffffffffffffffffffffff16815260200190815260200160002060009054906101000a900460ff16151514610f08576040517f833346fb00000000000000000000000000000000000000000000000000000000815260040160405180910390fd5b7f000000000000000000000000000000000000000000000000000000000000000073ffffffffffffffffffffffffffffffffffffffff166108fc600d60003373ffffffffffffffffffffffffffffffffffffffff1673ffffffffffffffffffffffffffffffffffffffff168152602001908152602001600020549081150290604051600060405180830381858888f19350505050158015610fad573d6000803e3d6000fd5b506001600c60003373ffffffffffffffffffffffffffffffffffffffff1673ffffffffffffffffffffffffffffffffffffffff16815260200190815260200160002060006101000a81548160ff02191690831515021790555060016009600160098054905061101c9190611e68565b8154811061102d5761102c611ef2565b5b906000526020600020906004020160030160006101000a81548160ff021916908315150217905550565b60005481565b7f000000000000000000000000000000000000000000000000000000000000000081565b600047905090565b600060606001808111156110a05761109f611a09565b5b600760019054906101000a900460ff1660018111156110c2576110c1611a09565b5b14156110fa576040517f745c5ddd00000000000000000000000000000000000000000000000000000000815260040160405180910390fd5b600454600381905550426006819055506001151560096004548154811061112457611123611ef2565b5b906000526020600020906004020160030160019054906101000a900460ff161515148061118957506001151560096004548154811061116657611165611ef2565b5b906000526020600020906004020160030160009054906101000a900460ff161515145b156111bf57600460008154809291906111a190611f21565b9190505550600360008154809291906111b990611f21565b91905055505b7f00000000000000000000000000000000000000000000000000000000000000006009600454815481106111f6576111f5611ef2565b5b906000526020600020906004020160020154426112139190611e68565b118015611252575060096004548154811061123157611230611ef2565b5b906000526020600020906004020160030160009054906101000a900460ff16155b8015611290575060096004548154811061126f5761126e611ef2565b5b906000526020600020906004020160030160019054906101000a900460ff16155b915081600760006101000a81548160ff021916908315150217905550816040518060400160405280600381526020017f307830000000000000000000000000000000000000000000000000000000000081525091509150915091565b60035481565b6008818154811061130257600080fd5b90600052602060002090600202016000915090508060000160009054906101000a900473ffffffffffffffffffffffffffffffffffffffff16908060010154905082565b600d6020528060005260406000206000915090505481565b600160009054906101000a900473ffffffffffffffffffffffffffffffffffffffff1681565b60055481565b60065481565b6000600b60003373ffffffffffffffffffffffffffffffffffffffff1673ffffffffffffffffffffffffffffffffffffffff16815260200190815260200160002054905090565b6000600e60003373ffffffffffffffffffffffffffffffffffffffff1673ffffffffffffffffffffffffffffffffffffffff1681526020019081526020016000205414611450576040517fa5baf15100000000000000000000000000000000000000000000000000000000815260040160405180910390fd5b60003390508073ffffffffffffffffffffffffffffffffffffffff166108fc839081150290604051600060405180830381858888f1935050505015801561149b573d6000803e3d6000fd5b5060016005546114ab9190611e9c565b600581905550816000546114bf9190611e68565b6000819055504260028190555060096040518060a001604052803373ffffffffffffffffffffffffffffffffffffffff168152602001848152602001600254815260200160001515815260200160001515815250908060018154018082558091505060019003906000526020600020906004020160009091909190915060008201518160000160006101000a81548173ffffffffffffffffffffffffffffffffffffffff021916908373ffffffffffffffffffffffffffffffffffffffff160217905550602082015181600101556040820151816002015560608201518160030160006101000a81548160ff02191690831515021790555060808201518160030160016101000a81548160ff02191690831515021790555050506000600c60003373ffffffffffffffffffffffffffffffffffffffff1673ffffffffffffffffffffffffffffffffffffffff16815260200190815260200160002060006101000a81548160ff02191690831515021790555081600d60003373ffffffffffffffffffffffffffffffffffffffff1673ffffffffffffffffffffffffffffffffffffffff168152602001908152602001600020819055506000600760016101000a81548160ff0219169083600181111561169b5761169a611a09565b5b02179055506116b860405180602001604052806000815250611089565b50505050565b600760009054906101000a900460ff1681565b60045481565b6000806116e383611713565b90506000670de0b6b3a764000085836116fc9190611f6a565b6117069190611ff3565b9050809250505092915050565b6000808273ffffffffffffffffffffffffffffffffffffffff1663feaf968c6040518163ffffffff1660e01b815260040160a06040518083038186803b15801561175c57600080fd5b505afa158015611770573d6000803e3d6000fd5b505050506040513d601f19601f8201168201806040525081019061179491906120b1565b5050509150506402540be400816117ab919061212c565b915050919050565b6000604051905090565b600080fd5b600080fd5b6000819050919050565b6117da816117c7565b81146117e557600080fd5b50565b6000813590506117f7816117d1565b92915050565b600060208284031215611813576118126117bd565b5b6000611821848285016117e8565b91505092915050565b600073ffffffffffffffffffffffffffffffffffffffff82169050919050565b60006118558261182a565b9050919050565b6118658161184a565b82525050565b611874816117c7565b82525050565b600060408201905061188f600083018561185c565b61189c602083018461186b565b9392505050565b60008115159050919050565b6118b8816118a3565b82525050565b600060a0820190506118d3600083018861185c565b6118e0602083018761186b565b6118ed604083018661186b565b6118fa60608301856118af565b61190760808301846118af565b9695505050505050565b6000819050919050565b600061193661193161192c8461182a565b611911565b61182a565b9050919050565b60006119488261191b565b9050919050565b600061195a8261193d565b9050919050565b61196a8161194f565b82525050565b60006020820190506119856000830184611961565b92915050565b60006119968261182a565b9050919050565b6119a68161198b565b81146119b157600080fd5b50565b6000813590506119c38161199d565b92915050565b600080604083850312156119e0576119df6117bd565b5b60006119ee858286016119b4565b92505060206119ff858286016117e8565b9150509250929050565b7f4e487b7100000000000000000000000000000000000000000000000000000000600052602160045260246000fd5b60028110611a4957611a48611a09565b5b50565b6000819050611a5a82611a38565b919050565b6000611a6a82611a4c565b9050919050565b611a7a81611a5f565b82525050565b6000602082019050611a956000830184611a71565b92915050565b611aa48161184a565b8114611aaf57600080fd5b50565b600081359050611ac181611a9b565b92915050565b600060208284031215611add57611adc6117bd565b5b6000611aeb84828501611ab2565b91505092915050565b6000602082019050611b09600083018461186b565b92915050565b600080fd5b600080fd5b600080fd5b60008083601f840112611b3457611b33611b0f565b5b8235905067ffffffffffffffff811115611b5157611b50611b14565b5b602083019150836001820283011115611b6d57611b6c611b19565b5b9250929050565b60008060208385031215611b8b57611b8a6117bd565b5b600083013567ffffffffffffffff811115611ba957611ba86117c2565b5b611bb585828601611b1e565b92509250509250929050565b6000602082019050611bd660008301846118af565b92915050565b600080fd5b6000601f19601f8301169050919050565b7f4e487b7100000000000000000000000000000000000000000000000000000000600052604160045260246000fd5b611c2a82611be1565b810181811067ffffffffffffffff82111715611c4957611c48611bf2565b5b80604052505050565b6000611c5c6117b3565b9050611c688282611c21565b919050565b600067ffffffffffffffff821115611c8857611c87611bf2565b5b611c9182611be1565b9050602081019050919050565b82818337600083830152505050565b6000611cc0611cbb84611c6d565b611c52565b905082815260208101848484011115611cdc57611cdb611bdc565b5b611ce7848285611c9e565b509392505050565b600082601f830112611d0457611d03611b0f565b5b8135611d14848260208601611cad565b91505092915050565b600060208284031215611d3357611d326117bd565b5b600082013567ffffffffffffffff811115611d5157611d506117c2565b5b611d5d84828501611cef565b91505092915050565b600081519050919050565b600082825260208201905092915050565b60005b83811015611da0578082015181840152602081019050611d85565b83811115611daf576000848401525b50505050565b6000611dc082611d66565b611dca8185611d71565b9350611dda818560208601611d82565b611de381611be1565b840191505092915050565b6000604082019050611e0360008301856118af565b8181036020830152611e158184611db5565b90509392505050565b6000602082019050611e33600083018461185c565b92915050565b7f4e487b7100000000000000000000000000000000000000000000000000000000600052601160045260246000fd5b6000611e73826117c7565b9150611e7e836117c7565b925082821015611e9157611e90611e39565b5b828203905092915050565b6000611ea7826117c7565b9150611eb2836117c7565b9250827fffffffffffffffffffffffffffffffffffffffffffffffffffffffffffffffff03821115611ee757611ee6611e39565b5b828201905092915050565b7f4e487b7100000000000000000000000000000000000000000000000000000000600052603260045260246000fd5b6000611f2c826117c7565b91507fffffffffffffffffffffffffffffffffffffffffffffffffffffffffffffffff821415611f5f57611f5e611e39565b5b600182019050919050565b6000611f75826117c7565b9150611f80836117c7565b9250817fffffffffffffffffffffffffffffffffffffffffffffffffffffffffffffffff0483118215151615611fb957611fb8611e39565b5b828202905092915050565b7f4e487b7100000000000000000000000000000000000000000000000000000000600052601260045260246000fd5b6000611ffe826117c7565b9150612009836117c7565b92508261201957612018611fc4565b5b828204905092915050565b600069ffffffffffffffffffff82169050919050565b61204381612024565b811461204e57600080fd5b50565b6000815190506120608161203a565b92915050565b6000819050919050565b61207981612066565b811461208457600080fd5b50565b60008151905061209681612070565b92915050565b6000815190506120ab816117d1565b92915050565b600080600080600060a086880312156120cd576120cc6117bd565b5b60006120db88828901612051565b95505060206120ec88828901612087565b94505060406120fd8882890161209c565b935050606061210e8882890161209c565b925050608061211f88828901612051565b9150509295509295909350565b600061213782612066565b915061214283612066565b9250827f7fffffffffffffffffffffffffffffffffffffffffffffffffffffffffffffff048211600084136000841316161561218157612180611e39565b5b817f800000000000000000000000000000000000000000000000000000000000000005831260008412600084131616156121be576121bd611e39565b5b827f800000000000000000000000000000000000000000000000000000000000000005821260008413600084121616156121fb576121fa611e39565b5b827f7fffffffffffffffffffffffffffffffffffffffffffffffffffffffffffffff058212600084126000841216161561223857612237611e39565b5b82820290509291505056fea26469706673582212203d39e9c3e766e87cc65e2f252fdf5cfc96985e51ff507f556d45e5b27f2a479764736f6c63430008080033",
  "devdoc": {
    "kind": "dev",
    "methods": {
      "performUpkeep(bytes)": {
        "details": "The input to this method should not be trusted, and the caller of the method should not even be restricted to any single registry. Anyone should be able call it, and the input should be validated, there is no guarantee that the data passed in is the performData returned from checkUpkeep. This could happen due to malicious keepers, racing keepers, or simply a state change while the performUpkeep transaction is waiting for confirmation. Always validate the data passed in.",
        "params": {
          "performData": "is the data which was passed back from the checkData simulation. If it is encoded, it can easily be decoded into other types by calling `abi.decode`. This data should not be trusted, and should be validated against the contract's current state."
        }
      }
    },
    "version": 1
  },
  "userdoc": {
    "kind": "user",
    "methods": {
      "performUpkeep(bytes)": {
        "notice": "method that is actually executed by the keepers, via the registry. The data returned by the checkUpkeep simulation will be passed into this method to actually be executed."
      }
    },
    "version": 1
  },
  "storageLayout": {
    "storage": [
      {
        "astId": 127,
        "contract": "contracts/BankingTranscation.sol:BankingAmount",
        "label": "BankTotalMoney",
        "offset": 0,
        "slot": "0",
        "type": "t_uint256"
      },
      {
        "astId": 129,
        "contract": "contracts/BankingTranscation.sol:BankingAmount",
        "label": "contractOwner",
        "offset": 0,
        "slot": "1",
        "type": "t_address"
      },
      {
        "astId": 133,
        "contract": "contracts/BankingTranscation.sol:BankingAmount",
        "label": "lastTimeStamp",
        "offset": 0,
        "slot": "2",
        "type": "t_uint256"
      },
      {
        "astId": 135,
        "contract": "contracts/BankingTranscation.sol:BankingAmount",
        "label": "loanIndex",
        "offset": 0,
        "slot": "3",
        "type": "t_uint256"
      },
      {
        "astId": 138,
        "contract": "contracts/BankingTranscation.sol:BankingAmount",
        "label": "i",
        "offset": 0,
        "slot": "4",
        "type": "t_uint256"
      },
      {
        "astId": 141,
        "contract": "contracts/BankingTranscation.sol:BankingAmount",
        "label": "loanCount",
        "offset": 0,
        "slot": "5",
        "type": "t_uint256"
      },
      {
        "astId": 144,
        "contract": "contracts/BankingTranscation.sol:BankingAmount",
        "label": "currentTime",
        "offset": 0,
        "slot": "6",
        "type": "t_uint256"
      },
      {
        "astId": 146,
        "contract": "contracts/BankingTranscation.sol:BankingAmount",
        "label": "up",
        "offset": 0,
        "slot": "7",
        "type": "t_bool"
      },
      {
        "astId": 173,
        "contract": "contracts/BankingTranscation.sol:BankingAmount",
        "label": "status",
        "offset": 1,
        "slot": "7",
        "type": "t_enum(loan)170"
      },
      {
        "astId": 176,
        "contract": "contracts/BankingTranscation.sol:BankingAmount",
        "label": "PriceFeed",
        "offset": 2,
        "slot": "7",
        "type": "t_contract(AggregatorV3Interface)84"
      },
      {
        "astId": 213,
        "contract": "contracts/BankingTranscation.sol:BankingAmount",
        "label": "people",
        "offset": 0,
        "slot": "8",
        "type": "t_array(t_struct(Custmers)151_storage)dyn_storage"
      },
      {
        "astId": 217,
        "contract": "contracts/BankingTranscation.sol:BankingAmount",
        "label": "peopleLoan",
        "offset": 0,
        "slot": "9",
        "type": "t_array(t_struct(peopleLoanDetails)162_storage)dyn_storage"
      },
      {
        "astId": 221,
        "contract": "contracts/BankingTranscation.sol:BankingAmount",
        "label": "blockedpeople",
        "offset": 0,
        "slot": "10",
        "type": "t_array(t_struct(BlockedListPeople)167_storage)dyn_storage"
      },
      {
        "astId": 225,
        "contract": "contracts/BankingTranscation.sol:BankingAmount",
        "label": "Balance",
        "offset": 0,
        "slot": "11",
        "type": "t_mapping(t_address,t_uint256)"
      },
      {
        "astId": 229,
        "contract": "contracts/BankingTranscation.sol:BankingAmount",
        "label": "loanMapping",
        "offset": 0,
        "slot": "12",
        "type": "t_mapping(t_address,t_bool)"
      },
      {
        "astId": 233,
        "contract": "contracts/BankingTranscation.sol:BankingAmount",
        "label": "loanAmountMapping",
        "offset": 0,
        "slot": "13",
        "type": "t_mapping(t_address,t_uint256)"
      },
      {
        "astId": 237,
        "contract": "contracts/BankingTranscation.sol:BankingAmount",
        "label": "blockedPeople",
        "offset": 0,
        "slot": "14",
        "type": "t_mapping(t_address,t_uint256)"
      }
    ],
    "types": {
      "t_address": {
        "encoding": "inplace",
        "label": "address",
        "numberOfBytes": "20"
      },
      "t_array(t_struct(BlockedListPeople)167_storage)dyn_storage": {
        "base": "t_struct(BlockedListPeople)167_storage",
        "encoding": "dynamic_array",
        "label": "struct BankingAmount.BlockedListPeople[]",
        "numberOfBytes": "32"
      },
      "t_array(t_struct(Custmers)151_storage)dyn_storage": {
        "base": "t_struct(Custmers)151_storage",
        "encoding": "dynamic_array",
        "label": "struct BankingAmount.Custmers[]",
        "numberOfBytes": "32"
      },
      "t_array(t_struct(peopleLoanDetails)162_storage)dyn_storage": {
        "base": "t_struct(peopleLoanDetails)162_storage",
        "encoding": "dynamic_array",
        "label": "struct BankingAmount.peopleLoanDetails[]",
        "numberOfBytes": "32"
      },
      "t_bool": {
        "encoding": "inplace",
        "label": "bool",
        "numberOfBytes": "1"
      },
      "t_contract(AggregatorV3Interface)84": {
        "encoding": "inplace",
        "label": "contract AggregatorV3Interface",
        "numberOfBytes": "20"
      },
      "t_enum(loan)170": {
        "encoding": "inplace",
        "label": "enum BankingAmount.loan",
        "numberOfBytes": "1"
      },
      "t_mapping(t_address,t_bool)": {
        "encoding": "mapping",
        "key": "t_address",
        "label": "mapping(address => bool)",
        "numberOfBytes": "32",
        "value": "t_bool"
      },
      "t_mapping(t_address,t_uint256)": {
        "encoding": "mapping",
        "key": "t_address",
        "label": "mapping(address => uint256)",
        "numberOfBytes": "32",
        "value": "t_uint256"
      },
      "t_struct(BlockedListPeople)167_storage": {
        "encoding": "inplace",
        "label": "struct BankingAmount.BlockedListPeople",
        "members": [
          {
            "astId": 164,
            "contract": "contracts/BankingTranscation.sol:BankingAmount",
            "label": "blockedAddress",
            "offset": 0,
            "slot": "0",
            "type": "t_address"
          },
          {
            "astId": 166,
            "contract": "contracts/BankingTranscation.sol:BankingAmount",
            "label": "remainingAmount",
            "offset": 0,
            "slot": "1",
            "type": "t_uint256"
          }
        ],
        "numberOfBytes": "64"
      },
      "t_struct(Custmers)151_storage": {
        "encoding": "inplace",
        "label": "struct BankingAmount.Custmers",
        "members": [
          {
            "astId": 148,
            "contract": "contracts/BankingTranscation.sol:BankingAmount",
            "label": "CustmerAddress",
            "offset": 0,
            "slot": "0",
            "type": "t_address"
          },
          {
            "astId": 150,
            "contract": "contracts/BankingTranscation.sol:BankingAmount",
            "label": "amount",
            "offset": 0,
            "slot": "1",
            "type": "t_uint256"
          }
        ],
        "numberOfBytes": "64"
      },
      "t_struct(peopleLoanDetails)162_storage": {
        "encoding": "inplace",
        "label": "struct BankingAmount.peopleLoanDetails",
        "members": [
          {
            "astId": 153,
            "contract": "contracts/BankingTranscation.sol:BankingAmount",
            "label": "CustmerAddress",
            "offset": 0,
            "slot": "0",
            "type": "t_address"
          },
          {
            "astId": 155,
            "contract": "contracts/BankingTranscation.sol:BankingAmount",
            "label": "loanAmount",
            "offset": 0,
            "slot": "1",
            "type": "t_uint256"
          },
          {
            "astId": 157,
            "contract": "contracts/BankingTranscation.sol:BankingAmount",
            "label": "timestampLoan",
            "offset": 0,
            "slot": "2",
            "type": "t_uint256"
          },
          {
            "astId": 159,
            "contract": "contracts/BankingTranscation.sol:BankingAmount",
            "label": "loanStatus",
            "offset": 0,
            "slot": "3",
            "type": "t_bool"
          },
          {
            "astId": 161,
            "contract": "contracts/BankingTranscation.sol:BankingAmount",
            "label": "blockStatus",
            "offset": 1,
            "slot": "3",
            "type": "t_bool"
          }
        ],
        "numberOfBytes": "128"
      },
      "t_uint256": {
        "encoding": "inplace",
        "label": "uint256",
        "numberOfBytes": "32"
      }
    }
  }
}